:020000040000FA
:1000000048150020950100009D0100009F0100009F
:10001000A1010000A3010000A5010000550000009F
:10002000000000000000000000000000A701000028
:10003000A901000000000000AB010000AD010000BC
:10004000DF030000AF010000AF010000AF010000BE
:10005000AF010000AF010000AF010000AF010000E0
:10006000AF010000AF010000AF010000AF010000D0
:10007000AF010000AF010000AF010000AF010000C0
:10008000AF010000AF010000AF010000AF010000B0
:10009000AF010000AF010000AF010000AF010000A0
:1000A000AF010000AF010000AF010000AF01000090
:1000B000AF010000AF010000AF010000AF01000080
:1000C00000F002F800F04AF80AA090E8000C824420
:1000D0008344AAF10107DA4501D100F03FF8AFF2FD
:1000E000090EBAE80F0013F0010F18BFFB1A43F016
:1000F00001031847DC180000FC1800000A4410F83F
:10010000014B14F00F0508BF10F8015B240908BF6C
:1001100010F8014B6D1E05D010F8013B6D1E01F863
:10012000013BF9D1641E03D0641E01F8015BFBD1D1
:100130009142E4D3704700000023002400250026EC
:10014000103A28BF78C1FBD8520728BF30C148BF3A
:100150000B6070471FB51FBD10B510BD01F0FBFA55
:100160001146FFF7F7FF00F08DF801F019FB03B41B
:10017000FFF7F2FF03BC01F021FB00000449034834
:1001800008607047024901480860704740787D0167
:10019000000000200948804709480047FEE7FEE7C5
:1001A000FEE7FEE7FEE7FEE7FEE7FEE7FEE7FEE727
:1001B00004480549054A064B7047000085010000C8
:1001C000C10000004805002048150020481100200B
:1001D000481100200146014800F04EBC00001040CC
:1001E00010B504460078002808BF10BD2078FFF73E
:1001F000F1FF14F8010F0028F8D110BD10B5064C1E
:100200006268002A18BF904720680028FDD110BD01
:10021000014948607047704704000020014800F021
:1002200031BC00000000104010B500F016FE0020A8
:1002300010BD10B500F00DFE002010BD10B5044635
:1002400000F097F8204600F006FE00F077F822460E
:100250001021722000F019FD002010BD0020704711
:1002600010B521A0FFF7BCFF28A0FFF7B9FF2AA017
:10027000FFF7B6FF29A0FFF7B3FF2BA0FFF7B0FFF2
:10028000002010BD29A384B00FCB8DE80F0000F033
:100290005AF800F07BF800F0DBFD684600F0D9FD6D
:1002A00000F0DAFCAFF2750210216B2000F0BAFC0E
:1002B000AFF277021021702000F0B4FCAFF26302BD
:1002C0000021782000F0AEFCAFF26B020021692023
:1002D00000F0A8FCAFF2AF0212216D2000F0A2FCEA
:1002E00000F0F2FCFCE7000044657369676E53742C
:1002F00061727420436F72746578204D332C2063D3
:100300006F6D70696C656420000000004E6F762090
:1003100033302032303233002C20000031343A3177
:10032000373A3130000000000A0000002B7E15161D
:1003300028AED2A6ABF7158809CF4F3C0022012189
:100340000E4800F0FAB810B500210C4800F02CF966
:1003500000281CBF012010BD6FF0010201210748D9
:1003600000F064F800220121044800F0E6F80020C3
:1003700010BD01221146014800F0DFB864020020E0
:100380001C48416070471B488160704710B50021D0
:10039000194800F087FB00281CBF012010BD164A39
:1003A000AFF21D01104600F0D7FA134AAFF22F0149
:1003B000104600F0B1FA11494FF48072A1F14C00DF
:1003C00000F0FAF9002010BD0A4948680A68801A4E
:1003D0001CBF4A680A607047074800F02DBB10B583
:1003E000054800F0D9FA4FF0E0210120C1F8800261
:1003F00010BD00001000002074020020C002002088
:1004000010B5634C50B10023236002608A6882609B
:10041000C968C1604FF01131416005E079215D4844
:10042000FFF7ECFE01202060002010BD70B5584C95
:10043000012558B1002323604368B3F1113F0BD06D
:100440009F215448FFF7DAFE256070BD9E21514878
:10045000FFF7D4FE256070BD01290BD0022904BF2F
:10046000C368012B06D04FF0A0014A48FFF7C6FE33
:10047000256070BD00686FF0030303EBC1014250BB
:1004800070BD70B5424C012560B100222260426807
:10049000B2F1113F0DD0BD213E48FFF7AFFE002065
:1004A000256070BDBC213B48FFF7A8FE00202560F9
:1004B00070BD01290CD0022904BFC268012A07D0EF
:1004C0004FF0BE013348FFF799FE0020256070BD54
:1004D00000686FF0030202EBC101405870BD70B5B7
:1004E0002B4C012560B1002222604268B2F1113F1D
:1004F0000DD0D7212748FFF781FE0020256070BD71
:10050000D6212448FFF77AFE0020256070BD01291E
:100510000CD0022904BFC268012A07D04FF0D801CD
:100520001C48FFF76BFE0020256070BD00686FF06F
:10053000070202EBC101405870BD70B5144C012593
:1005400058B1002323604368B3F1113F0BD0F3216E
:100550001048FFF753FE256070BDF2210D48FFF7EC
:100560004DFE256070BD01290BD0022904BFC36870
:10057000012B06D04FF0F4010648FFF73FFE25603F
:1005800070BD00686FF0070303EBC101425070BDFE
:100590000C000020CC170000104A014600201288F1
:1005A0008A4208BF0D48704710B50D4C70B10B4B17
:1005B000002222601B888B421EBF4260022010BDB9
:1005C00006494A68BDE81040FFF71ABF8B2105486D
:1005D000FFF714FE01202060002010BD1C00002049
:1005E0000C0000201818000010B540F2BB11C748DD
:1005F000FFF704FEC6490120086010BD10B5C44CC9
:1006000090B1002121604162C16281620163816316
:100610004FF011334163C0E90723BE4BC36343640A
:10062000D16000F08BFA05E08B21B848FFF7E6FDBA
:1006300001202060002010BDD0F81CC00021DCF893
:100640000820DCF80820CCF80C10D2B2944607E061
:10065000426AC369525C5A60C2699268491CD2B24C
:1006600012F0080F02D1C26A8A42F1D8426A0A44E3
:100670004262C26A521AC26282680A448260C069D7
:100680000CF01002C2600846704770B5A04C0126FD
:1006900068B10025256089B1036AB3F1113F14D018
:1006A000DC219A48FFF7AAFD0020266070BDDA2100
:1006B0009648FFF7A3FD0020266070BDDB2193481C
:1006C000FFF79CFD0020266070BD002A14DBC36983
:1006D000D3F808C0DD608262C2624162C1690CF079
:1006E0001002CA60C26900211346D2F808C092689D
:1006F000DD60D2B294460EE0DD218448FFF77EFD36
:100700000020266070BD436AC2695B5C5360C269A9
:100710009268491CD2B212F0080F02D1C26A8A4212
:10072000F1D8426A0A444262C26A521AC2628268BC
:100730000A448260C0690CF01002C260084670BDB5
:1007400010B4C26900219368D160DCB2826B002AC8
:1007500022D9C3699C469A68D2B212F0010F1BD00D
:10076000DCF80030D0F830C00CF80130491C12F031
:10077000200F02D003695B1C036112F0800F02D0CE
:1007800043695B1C436112F0400F02D08269521C26
:100790008261826B8A42DCD8026B0A440263826BFC
:1007A000521A8263C2680A44C260C06904F010022F
:1007B000C26010BC0846704770B5554C012580B129
:1007C0004FF0000CC4F800C099B1036AB3F1113FB7
:1007D00017D040F22F114D48FFF710FD0020256083
:1007E00070BD40F22D114948FFF708FD002025603B
:1007F00070BD4FF497714548FFF700FD002025605C
:1008000070BD002A14DBC3699C68C3F80CC0426346
:1008100082630163C16904F01002CA60C2690021E9
:100820009368C2F80CC0DCB2826B002A2BD907E0B7
:100830004FF498713548FFF7E1FC0020256070BD4A
:10084000C3699C469A68D2B212F0010F1BD0DCF843
:100850000030D0F830C00CF80130491C12F0200FE5
:1008600002D003695B1C036112F0800F02D0436960
:100870005B1C436112F0400F02D08269521C8261FE
:10088000826B8A42DCD8026B0A440263826B521A82
:100890008263C2680A44C260C06904F01002C26088
:1008A000084670BD70B51A4C012560B10021216069
:1008B000016AB1F1113F0DD040F26B111348FFF7FF
:1008C0009DFC256070BD4FF4B5711048FFF796FC94
:1008D000256070BDC069816801F0100141F003011D
:1008E000C16070BD70B50A4D012430B1002129608E
:1008F000C069806824EA900070BD40F295110348F9
:10090000FFF77CFC00202C6070BD00006C1800001C
:100910000C000020E905000070B5554C012578B1A8
:100920000023236091B1036AB3F1113F04BFC0E912
:100930000F1270BD66214F48FFF760FC256070BD47
:1009400064214C48FFF75AFC256070BD6521494879
:10095000FFF754FC256070BD70B5454C012578B19A
:100960000023236091B1036AB3F1113F04BFC0E9D2
:10097000111270BD87213F48FFF740FC256070BD14
:1009800085213C48FFF73AFC256070BD8621394837
:10099000FFF734FC256070BD70B5354D04000ED0F6
:1009A00000262E60E069856815F0030F15D0A06B56
:1009B00060B12046FFF7C4FEA06B38B10AE0A22167
:1009C0002C48FFF71BFC0120286070BDD4E90F20E4
:1009D000616B90476068411C616015F0040F1ABF9D
:1009E000A16A002970BDE06A30B12046FFF724FEFD
:1009F0002068401C206070BDA662D4E91120904799
:100A0000F6E770B51A4C012578B100212160026A21
:100A1000B2F1113F02BFC069C16070BD4FF4917166
:100A20001448FFF7EBFB256070BD40F2211111481F
:100A3000FFF7E4FB256070BD70B50D4C012560B17A
:100A400000212160016AB1F1113F0DD04FF4A07176
:100A50000848FFF7D3FB256070BD40F23F11054801
:100A6000FFF7CCFB256070BDC0691021C16070BD6F
:100A70000C000020C0180000826812F0080FFBD1A3
:100A800041607047816811F0010FFBD00068C0B26F
:100A900070470000104A0146002012888A4208BFB1
:100AA0000D48704710B50D4C68B1002222600A4A0B
:100AB00012888A421CBF022010BD07494A68BDE85F
:100AC0001040FFF79BBD81210548FFF797FB0120F0
:100AD0002060002010BD00002C0000200C00002031
:100AE0001819000070B5244C012560B10022226065
:100AF00079B1026AB2F1113F11D05E211F48FFF7B0
:100B00007DFB256070BD5C211C48FFF777FB2560ED
:100B100070BD5D211948FFF771FB256070BD02684B
:100B20000A6042684A6082688A60C268CA60026974
:100B30000A6182698A614069486170BD70B50E4C76
:100B4000012558B100212160026AB2F1113F0BD09A
:100B500080210A48FFF752FB256070BD7F210748BE
:100B6000FFF74CFB256070BD016041608160C16092
:100B700001618161416170BD0C00002074190000A9
:100B80002DE9F0010023002842DDAB4EAB4FDFF82A
:100B9000B08200BF01EB430411F813C06478A4F1E4
:100BA0003005092D98BFD5540CD9A4F14105052D68
:100BB00098BF373C05D9A4F16105052D98BF573C76
:100BC0002AD8D454ACF13004092C07D8D45C06EBF5
:100BD0000C1C44EA0C0C02F803C016E0ACF1410412
:100BE000052C07D8D45C07EB0C1C44EA0C0C02F86B
:100BF00003C00AE0ACF16104052C0DD8D45C08EB0D
:100C00000C1C44EA0C0C02F803C05B1C8342C1DBE1
:100C1000BDE8F00100207047BDE8F00101207047F9
:100C200000207047DFF81CC2DCF800300A2B01DA24
:100C3000402901D30120704730B4834C03EB4305B6
:100C400004F8250004EB8500C0E90112581CCCF81B
:100C5000000030BC0020704730B476240023AFF28F
:100C60003F02784908680A28A4BF30BC704700EBEF
:100C70004005401CDFF8D0C10CF825400CEB850C7A
:100C8000CCE90132086030BC70472DE9F0411546CF
:100C90000F46FFF79FFA0024002FC8BF6B4E0EDDF2
:100CA000285D06EB10100078FFF794FA285D00F03D
:100CB0000F00305CFFF78EFA641CA742F0DCBDE841
:100CC000F0410A20FFF786BA2DE9F043B1B0FFF7F3
:100CD000A5FA5C4A0021D2F800C0BCF1000FCCBFDD
:100CE0000CF0010300235C1E574A08D401EB4105B8
:100CF00012F82550854215D0491CA142F6DD19464F
:100D00008C450FDD01EB410312F82340844209D0EA
:100D100002EB83031B7B834201D1491C02E0891C47
:100D20006145EFDB614504BF31B0BDE8F0830024CD
:100D300001EB410002EB80056868B4EB400F38BF5F
:100D40006E460ED2FFF76AFA0A2812BF0D2831B09C
:100D5000BDE8F0833055686804F10104B4EB400F3E
:100D6000F0D3FFF75BFA0A281EBF0D2831B0BDE8AB
:100D7000F083EC466C6820A94FF00000002C42DDA7
:100D80002D4FDFF8B880DFF8B89000BF0CEB4003C0
:100D90001CF810205B78A3F13006092E98BF0E5482
:100DA0000ED9A3F14106052E98BF373B07D9A3F111
:100DB0006106052E92BF573B31B0BDE8F0830B545E
:100DC000A2F13003092B05D80B5C07EB02121A4382
:100DD0000A5415E0A2F14103052B05D80B5C08EB82
:100DE00002121A430A540BE0A2F16103052B84BFDF
:100DF00031B0BDE8F0830B5C09EB02121A430A54D0
:100E0000401CA042C2DBA96820A8884704467A207B
:100E1000FFF7E0F90D4DE0B205EB10100078FFF799
:100E2000D9F904F00F00285CFFF7D4F90A20FFF786
:100E3000D1F931B0BDE8F08300FDFFFF90FCFFFF6A
:100E400090FAFFFF3C000020C0030020400000207B
:100E5000704700F0D5BA00F0D6BA70472DE9F0031C
:100E6000FE4904234A68FE495B1E12F801CB01F8D3
:100E700001CB12F801CB01F801CB12F802CB01F83B
:100E800002CB12F801CC01F801CCEDD1F54FF44EB4
:100E9000042207F5007800BF06EB820112F0030F71
:100EA00011F8043C11F8034C63F3070011F8025CDD
:100EB00064F30F2011F801CC65F317406CF31F6049
:100EC00010D17D5D17F80CC065F30F20FB5C6CF34F
:100ED000174063F31F6008EB92033C5D1B7863408F
:100EE00063F3070011F8103C434006F8223011F874
:100EF0000F3C521C83EA10234B7011F80E3C2C2A35
:100F000083EA10438B7011F80D3C83EA1063CB70B9
:100F1000C2D3BDE8F0037047D049D14A096802EB5B
:100F200000100B7802785A400A704A7843785A4089
:100F30004A708A7883785A408A70CA78C3785A404F
:100F4000CA700A7903795A400A714A7943795A403A
:100F50004A718A7983795A408A71CA79C3795A4029
:100F6000CA710A7A037A5A400A724A7A437A5A4014
:100F70004A728A7A837A5A408A72CA7AC37A5A4003
:100F8000CA720A7B037B5A400A734A7B437B5A40EE
:100F90004A738A7B837B5A408A73CA7BC07B5040EA
:100FA000C87370472DE9F05F0020FFF7B5FFAD4C27
:100FB0000127AA48002201685FF0000001EB8003CE
:100FC000401C13F802C0C0B2042814F80CC003F887
:100FD00002C0F3D3501CC2B2042AEDD348784A7938
:100FE0004A704A7A4A714A7B4A72487388788A7A88
:100FF0008A70887288798A7B8A718873C878CA7B7C
:10100000CA70CA7ACA73CA79CA72C8715FF000021C
:1010100001EB820311F8220093F801A093F80290EB
:1010200080EA0A0593F803804FEAD51B89EA08068F
:101030000BEBCB0B85EA060C0BEB4B0B8BEA450558
:1010400085EA0C05454001F822508AEA09054FEA75
:10105000D51B0BEBCB0B0BEB4B0B8BEA450585EA5A
:101060000C058AEA05055D70F50905EBC50505EB7C
:10107000450585EA460585EA0C0589EA05059D7062
:1010800088EA0000C50905EBC50505EB450585EABD
:10109000400080EA0C0088EA0000D870501CC2B200
:1010A000042AB5D33846FFF737FF781CC7B20A2F9A
:1010B000FFF47FAF69480021D0F800C05FF0000066
:1010C0000CEB8002401C535CC0B20428E35C535418
:1010D000F6D3481CC1B20429F0D300F0D5F9BDE81D
:1010E000F05F0A2018E72DE9F04FA1B00A20FFF7C2
:1010F00013FF09201A9059485B490068447B90F817
:1011000009A080F80DA0CDF830A090F805B080F8C7
:1011100009B090F801A080F805A0447090F802C0D2
:1011200090F80A9080F8029080F80AC0837990F8CD
:101130000E8080F806808373C278C779C770C67A3C
:10114000C671C57BC572C27390F800E011F80EE05D
:1011500080F800E090F804E011F80EE080F804E078
:1011600090F808E011F80EE080F808E090F80CE044
:1011700011F80EE080F80CE00C5D447011F80A40A4
:10118000447111F80B404472DDF830A011F80A40A8
:10119000447311F80940847011F80840847111F803
:1011A0000CC080F80AC0CB5C8373CB5DC3708B5DD1
:1011B000C3714B5DC372895CC1731A98FFF7ACFEB3
:1011C00026480027D0F8009009EB870819F8276017
:1011D00098F803C0F00900EBC00000EB400080EA83
:1011E000460000F0FF0A4FEADA1000EBC00000EB07
:1011F000400080EA4A0098F8024000F0FF0B98F89F
:1012000001504FEADB10E10900EBC00001EBC10126
:10121000CDF854A000EB400001EB410180EA4B0304
:1012200081EA4401CDF848A001F0FF0A4FEADC1042
:10123000E90900EBC00001EBC10100EB400001EB4C
:101240004101CDF814B080EA4C00CDF840B081EAFD
:101250004501C0B201F0FF0B08E000005000002083
:101260003804002058000020580100204FEADB110C
:1012700001EBC10101EB410181EA4B0101F0FF0EDD
:101280004FEADE1101EBC10101EB410181EA4E029F
:10129000CDF824E0CDF87CB0CDF850A0C109CDE95F
:1012A0000BA001EBC10101EB410181EA400000F01C
:1012B000FF0A4FEADA1000EBC00000EB4000CDF867
:1012C00064A080EA4A01CDF858A0DDF82CA04FEACE
:1012D000DA1000EBC00000EB400080EA4A0000F0AA
:1012E000FF0B4FEADB1000EBC00000EB400080EA90
:1012F0004B00CDF860B01790CDF84CB0DDF840B0A1
:10130000DDF848A011908AEA0B0ADDF87CB08AEA81
:10131000030A8BEA050B8BEA020B8AEA0B0ADDF85B
:101320004CB08BEA040B8BEA000B8AEA0B0A81EAC9
:101330000C0B8AEA0B0A09F827A0DDF87CB083EAD7
:10134000060A8BEA0E0B8BEA020B8AEA0B0BDDF81E
:101350002CA08AEA040A8AEA0000DDF858A08BEA89
:1013600000008AEA0C0A8AEA010A80EA0A0088F880
:101370000100DDF814B082EA050A8BEA0600584045
:1013800080EA0A0EDDF860B0DDF850A08AEA0B0AA8
:1013900011987F1C8AEA00008EEA000A0C9880EA05
:1013A0000C0048408AEA000088F80200DDF854A0EA
:1013B000DDF824E08AEA060058408EEA05035A4028
:1013C00042401798DDF864A0604042400C9880EAE3
:1013D0000A004840504088F80300042FFFF6F4AE9E
:1013E0001A98401E10F0FF001A907FF484AE00F0AF
:1013F0009AF800F064F821B00020BDE8F04F8BE5CA
:10140000564948602AE555490860CBE570B50C4659
:101410000146501A15461346002803DD1028B8BFB0
:10142000002004DB1022284600F09CF805E00A5C4E
:101430001A54401CC0B21028F9D34848C0E90054DF
:10144000FFF70CFDBDE87040ACE570B50C460146F9
:10145000501A15461346002803DD1028B8BF002097
:1014600004DB1022284600F07DF805E00A5C1A54DF
:10147000401CC0B21028F9D33848C0E90054FFF727
:10148000EDFCBDE870402EE63448006841784279B2
:101490004270427A4271427B427241738178827A11
:1014A000827081728179827B82718173C178C27B03
:1014B000C270C27AC273C279C272C17170472748C2
:1014C0002749006802788A5C027002798A5C02719E
:1014D000027A8A5C0272027B8A5C027342788A5CBE
:1014E000427042798A5C4271427A8A5C4272427BE3
:1014F0008A5C427382788A5C827082798A5C8271AB
:10150000827A8A5C8272827B8A5C8273C2788A5C0D
:10151000C270C2798A5CC271C27A8A5CC272C27BB2
:10152000895CC17370470D480068417B427A427301
:10153000427942724278427141708178827A827037
:1015400081728179827B82718173C178C279C27024
:10155000C27AC271C27BC272C17370475000002050
:1015600058010020431A28BF9A4240F24080032AC3
:101570001044114440F2268010F0030F1EBF11F8F2
:10158000013D521E00F8013D10F0030F7FF4F6AF4D
:1015900011F0030300F08380083AC0F00B8051F88B
:1015A000043D083A51F804CD40F8043D40F804CD1C
:1015B000FFF7F3BF121D5CBF51F8043D40F8043D36
:1015C000AFF30080D20724BF11F8013D11F801CD1F
:1015D00048BF11F8012C24BF00F8013D00F801CDEF
:1015E00048BF00F8012C7047704770477047032AC6
:1015F00040F2308010F0030C00F0158011F8013B30
:10160000BCF1020F624498BF11F801CB00F8013B16
:1016100038BF11F8013BA2F1040298BF00F801CBDA
:1016200038BF00F8013B11F0030300F06280083A74
:10163000C0F0088051F8043B083A51F804CBA0E808
:101640000810F5E7121D5CBF51F8043B40F8043B5D
:10165000AFF30080D20724BF11F8013B11F801CB92
:1016600048BF11F8012B24BF00F8013B00F801CB63
:1016700048BF00F8012B7047431A28BF9A4240F236
:101680003880104410F0030F11441EBF11F8013DC3
:10169000521E00F8013D10F0030F7FF4F6AF103A30
:1016A000C0F00A8010B531E91850103A20E91850FE
:1016B000BFF4F9AFBDE81040530724BF31E908106B
:1016C00020E9081044BF51F8043D40F8043D12F0F1
:1016D000030F08BF7047D20728BF31F8023D48BF4B
:1016E00011F8012C28BF20F8023D48BF00F8012C5A
:1016F000704710B5203AC0F00B80B1E81850203A7E
:10170000A0E81850B1E81850A0E81850BFF4F5AFA1
:101710005FEA027C24BFB1E81850A0E8185044BF2B
:1017200018C918C0BDE810405FEA827C24BF51F898
:10173000043B40F8043B08BF7047D20728BF31F88C
:10174000023B48BF11F8012B28BF20F8023B48BFDD
:1017500000F8012B7047754600F02CF8AE460500E6
:101760006946534620F00700854618B020B5FEF7BD
:101770001FFDBDE820404FF000064FF000074FF07E
:1017800000084FF0000B21F00701AC46ACE8C0099F
:10179000ACE8C009ACE8C009ACE8C0098D467047A8
:1017A00010B50446AFF300802046BDE81040FEF7B8
:1017B000DEBC000000487047E80400200149182002
:1017C000ABBEFEE726000200704700002E2E5C73C1
:1017D000646B5F776F726B73706163655C73746168
:1017E0006E64616C6F6E655F6273705F305C436FD7
:1017F000727465785F4D335F305C6C6962737263DD
:101800005C6770696F5F76345F345C7372635C78B9
:101810006770696F2E6300002E2E5C73646B5F77B8
:101820006F726B73706163655C7374616E64616C1D
:101830006F6E655F6273705F305C436F7274657862
:101840005F4D335F305C6C69627372635C677069B3
:101850006F5F76345F345C7372635C786770696F56
:101860005F73696E69742E63000000002E2E5C7336
:10187000646B5F776F726B73706163655C737461C7
:101880006E64616C6F6E655F6273705F305C436F36
:10189000727465785F4D335F305C6C69627372633C
:1018A0005C756172746C6974655F76335F325C730A
:1018B00072635C78756172746C6974652E63000084
:1018C0002E2E5C73646B5F776F726B7370616365F0
:1018D0005C7374616E64616C6F6E655F6273705F80
:1018E000305C436F727465785F4D335F305C6C6958
:1018F000627372635C756172746C6974655F763370
:101900005F325C7372635C78756172746C69746564
:101910005F696E74722E63002E2E5C73646B5F774A
:101920006F726B73706163655C7374616E64616C1C
:101930006F6E655F6273705F305C436F7274657861
:101940005F4D335F305C6C69627372635C756172AA
:10195000746C6974655F76335F325C7372635C7854
:10196000756172746C6974655F73696E69742E63F6
:10197000000000002E2E5C73646B5F776F726B73D8
:10198000706163655C7374616E64616C6F6E655FDA
:101990006273705F305C436F727465785F4D335F64
:1019A000305C6C69627372635C756172746C6974CB
:1019B000655F76335F325C7372635C7875617274F5
:1019C0006C6974655F73746174732E63000000004A
:1019D000F01900000000002064020000FC0000007C
:1019E000241C000064020020E41200003801000002
:1019F000061F40787D0101F24055104000966208B4
:101A0000901130313233343536373839414243441E
:101A100045462053637C777BF26B6FC53001672BA3
:101A2000FED7AB76CA82C97DFA5947F0ADD4A2AFD2
:101A30009CA472C0B7FD9326363FF7CC34A5E5F1E0
:101A400071D8311504C723C31896059A071280E28E
:101A5000EB27B27509832C1A1B6E5AA0523BD6B3E2
:101A600029E32F8453D110FFED20FCB15B6ACBBE7C
:101A7000394A4C58CFD0EFAAFB434D338545F90284
:101A80007F503C9FA851A3408F929D38F5BCB6DA99
:101A90002110FFF3D2CD0C13EC5F974417C4A77E3F
:101AA0003D645D197360814FDC222A908846EEB850
:101AB00014DE5E0BDBE0323A0A4906245CC2D3AC8A
:101AC000629195E479E7C8376D8DD54EA96C56F4CF
:101AD000EA657AAE08BA78252E1CA6B4C6E8DD748D
:101AE0001F4BBD8B8A703EB5664803F60E613557B5
:101AF000B986C11D9EE1F8981169D98E949B1E8705
:101B0000E9CE5528DF8CA1890DBFE6426841992DA9
:101B10000FB054BB1652096AD53036A538BF40A362
:101B20009E81F3D7FB7CE339829B2FFF87348E4362
:101B300044C4DEE9CB547B9432A6C2233DEE4C95DF
:101B40000B42FAC34E082EA16628D924B2765BA2B6
:101B5000496D8BD12572F8F66486689816D4A45C1A
:101B6000CC5D65B6926C10BC704850FDEDB9DA5E84
:101B7000154657A78D9D8490D8AB008CBCD30AF72F
:101B8000E45805B8B34506D02C1E8FCA3F0F02C1DA
:101B9000AFBD0301138A6B3A9111414F67DCEA979D
:101BA000F2CFCEF0B4E67396AC7422E7AD3585E2A1
:101BB000F937E81C75DF6E47F11A711D29C5896F69
:101BC000B7620EAA18BE1BFC563E4BC6D279209AAD
:101BD000DBC0FE78CD5AF41FDDA8338807C731B1CA
:101BE0001210592780EC5F60517FA919B54A0D2D5D
:101BF000E57A9F93C99CEFA0E03B4DAE2AF5B0C8B3
:101C0000EBBB3C83539961172B047EBA77D626E150
:101C100069146355210C7D8D010204081020408059
:041C20001B3600006F
:040000050000019561
:00000001FF
